{
  "contractName": "MerkleDrop",
  "abi": [
    {
      "inputs": [
        {
          "internalType": "address",
          "name": "_token",
          "type": "address"
        },
        {
          "internalType": "uint256",
          "name": "_feeToken",
          "type": "uint256"
        },
        {
          "internalType": "uint256",
          "name": "_feeEth",
          "type": "uint256"
        },
        {
          "internalType": "address",
          "name": "_walletAddress",
          "type": "address"
        }
      ],
      "stateMutability": "nonpayable",
      "type": "constructor"
    },
    {
      "anonymous": false,
      "inputs": [
        {
          "indexed": true,
          "internalType": "address",
          "name": "_airdropCreator",
          "type": "address"
        },
        {
          "indexed": true,
          "internalType": "address",
          "name": "_token",
          "type": "address"
        },
        {
          "indexed": false,
          "internalType": "uint256",
          "name": "_amount",
          "type": "uint256"
        },
        {
          "indexed": false,
          "internalType": "uint256",
          "name": "_airdropDate",
          "type": "uint256"
        },
        {
          "indexed": false,
          "internalType": "uint256",
          "name": "_airdropExpirationDate",
          "type": "uint256"
        }
      ],
      "name": "AirDropSubmitted",
      "type": "event"
    },
    {
      "anonymous": false,
      "inputs": [
        {
          "indexed": true,
          "internalType": "address",
          "name": "account",
          "type": "address"
        },
        {
          "indexed": false,
          "internalType": "uint256",
          "name": "amount",
          "type": "uint256"
        },
        {
          "indexed": false,
          "internalType": "address",
          "name": "vault",
          "type": "address"
        }
      ],
      "name": "Claimed",
      "type": "event"
    },
    {
      "anonymous": false,
      "inputs": [
        {
          "indexed": true,
          "internalType": "address",
          "name": "previousOwner",
          "type": "address"
        },
        {
          "indexed": true,
          "internalType": "address",
          "name": "newOwner",
          "type": "address"
        }
      ],
      "name": "OwnershipTransferred",
      "type": "event"
    },
    {
      "stateMutability": "payable",
      "type": "fallback"
    },
    {
      "inputs": [],
      "name": "acceptOwnership",
      "outputs": [
        {
          "internalType": "bool",
          "name": "",
          "type": "bool"
        }
      ],
      "stateMutability": "nonpayable",
      "type": "function"
    },
    {
      "inputs": [
        {
          "internalType": "address",
          "name": "",
          "type": "address"
        }
      ],
      "name": "airdroppedtokens",
      "outputs": [
        {
          "internalType": "address",
          "name": "airdropCreator",
          "type": "address"
        },
        {
          "internalType": "address",
          "name": "tokenAddress",
          "type": "address"
        },
        {
          "internalType": "bytes32",
          "name": "rootHash",
          "type": "bytes32"
        },
        {
          "internalType": "uint256",
          "name": "amount",
          "type": "uint256"
        },
        {
          "internalType": "uint256",
          "name": "airdropStartDate",
          "type": "uint256"
        },
        {
          "internalType": "uint256",
          "name": "airdropExpirationDate",
          "type": "uint256"
        }
      ],
      "stateMutability": "view",
      "type": "function"
    },
    {
      "inputs": [
        {
          "internalType": "address",
          "name": "",
          "type": "address"
        },
        {
          "internalType": "uint256",
          "name": "",
          "type": "uint256"
        }
      ],
      "name": "claimedMap",
      "outputs": [
        {
          "internalType": "bool",
          "name": "",
          "type": "bool"
        }
      ],
      "stateMutability": "view",
      "type": "function"
    },
    {
      "inputs": [],
      "name": "feeInEth",
      "outputs": [
        {
          "internalType": "uint256",
          "name": "",
          "type": "uint256"
        }
      ],
      "stateMutability": "view",
      "type": "function"
    },
    {
      "inputs": [],
      "name": "feeInToken",
      "outputs": [
        {
          "internalType": "uint256",
          "name": "",
          "type": "uint256"
        }
      ],
      "stateMutability": "view",
      "type": "function"
    },
    {
      "inputs": [],
      "name": "newOwner",
      "outputs": [
        {
          "internalType": "address payable",
          "name": "",
          "type": "address"
        }
      ],
      "stateMutability": "view",
      "type": "function"
    },
    {
      "inputs": [],
      "name": "owner",
      "outputs": [
        {
          "internalType": "address payable",
          "name": "",
          "type": "address"
        }
      ],
      "stateMutability": "view",
      "type": "function"
    },
    {
      "inputs": [],
      "name": "tokenAddress",
      "outputs": [
        {
          "internalType": "address",
          "name": "",
          "type": "address"
        }
      ],
      "stateMutability": "view",
      "type": "function"
    },
    {
      "inputs": [
        {
          "internalType": "address payable",
          "name": "_newOwner",
          "type": "address"
        }
      ],
      "name": "transferOwnership",
      "outputs": [],
      "stateMutability": "nonpayable",
      "type": "function"
    },
    {
      "inputs": [
        {
          "internalType": "bytes32",
          "name": "",
          "type": "bytes32"
        }
      ],
      "name": "vaultAddress",
      "outputs": [
        {
          "internalType": "address",
          "name": "",
          "type": "address"
        }
      ],
      "stateMutability": "view",
      "type": "function"
    },
    {
      "inputs": [],
      "name": "walletAddress",
      "outputs": [
        {
          "internalType": "address",
          "name": "",
          "type": "address"
        }
      ],
      "stateMutability": "view",
      "type": "function"
    },
    {
      "stateMutability": "payable",
      "type": "receive"
    },
    {
      "inputs": [
        {
          "internalType": "address",
          "name": "_token",
          "type": "address"
        },
        {
          "internalType": "uint256",
          "name": "_amount",
          "type": "uint256"
        },
        {
          "internalType": "bytes32",
          "name": "_root",
          "type": "bytes32"
        },
        {
          "internalType": "uint256",
          "name": "_airdropStartDate",
          "type": "uint256"
        },
        {
          "internalType": "uint256",
          "name": "_airdropExpirationDate",
          "type": "uint256"
        },
        {
          "internalType": "bool",
          "name": "_paymentInToken",
          "type": "bool"
        }
      ],
      "name": "createAirDrop",
      "outputs": [
        {
          "internalType": "bool",
          "name": "",
          "type": "bool"
        }
      ],
      "stateMutability": "payable",
      "type": "function"
    },
    {
      "inputs": [
        {
          "internalType": "uint256",
          "name": "_fee",
          "type": "uint256"
        }
      ],
      "name": "setTokenFee",
      "outputs": [],
      "stateMutability": "nonpayable",
      "type": "function"
    },
    {
      "inputs": [
        {
          "internalType": "uint256",
          "name": "_fee",
          "type": "uint256"
        }
      ],
      "name": "setEthFee",
      "outputs": [],
      "stateMutability": "nonpayable",
      "type": "function"
    },
    {
      "inputs": [
        {
          "internalType": "address",
          "name": "_walletAddress",
          "type": "address"
        }
      ],
      "name": "setWalletAddress",
      "outputs": [],
      "stateMutability": "nonpayable",
      "type": "function"
    },
    {
      "inputs": [
        {
          "internalType": "bytes32[]",
          "name": "_hex",
          "type": "bytes32[]"
        },
        {
          "internalType": "bytes32[][]",
          "name": "_proof",
          "type": "bytes32[][]"
        },
        {
          "internalType": "uint256[]",
          "name": "index",
          "type": "uint256[]"
        },
        {
          "internalType": "uint256[]",
          "name": "amount",
          "type": "uint256[]"
        }
      ],
      "name": "claim",
      "outputs": [
        {
          "internalType": "bool",
          "name": "",
          "type": "bool"
        }
      ],
      "stateMutability": "nonpayable",
      "type": "function"
    },
    {
      "inputs": [
        {
          "internalType": "address",
          "name": "_vault",
          "type": "address"
        }
      ],
      "name": "sendTokenBackToAirDropperByVault",
      "outputs": [
        {
          "internalType": "bool",
          "name": "",
          "type": "bool"
        }
      ],
      "stateMutability": "nonpayable",
      "type": "function"
    },
    {
      "inputs": [
        {
          "internalType": "bytes32",
          "name": "_hex",
          "type": "bytes32"
        }
      ],
      "name": "sendTokenBackToAirDropperByHex",
      "outputs": [
        {
          "internalType": "bool",
          "name": "",
          "type": "bool"
        }
      ],
      "stateMutability": "nonpayable",
      "type": "function"
    }
  ],
  "bytecode": "0x60806040523480156200001157600080fd5b5060405162001ec238038062001ec28339810160408190526200003491620000f7565b6200003f336200007d565b600580546001600160a01b039586166001600160a01b0319918216179091556006939093556007919091556008805491909316911617905562000143565b6003546040516001600160a01b038084169216907f8be0079c531659141344cd1fd0a4f28419497f9722a3daafe3b4186f6b6457e090600090a3600380546001600160a01b0319166001600160a01b0392909216919091179055565b80516001600160a01b0381168114620000f157600080fd5b92915050565b600080600080608085870312156200010d578384fd5b620001198686620000d9565b93506020850151925060408501519150620001388660608701620000d9565b905092959194509250565b611d6f80620001536000396000f3fe60806040526004361061010d5760003560e01c80638da5cb5b11610095578063ac1a386a11610064578063ac1a386a146102b1578063af638e88146102d1578063c224fb94146102f1578063d4ee1d9014610311578063f2fde38b1461032657610117565b80638da5cb5b146102525780639d76ea5814610267578063a3419a8f1461027c578063a6e6a1211461029157610117565b80633f6738a9116100dc5780633f6738a9146101b95780635932d3a3146101d95780636ad5b3ea146101fb57806379ba50971461021d578063865b22801461023257610117565b80632304939d1461011c57806331b31b881461014557806337c26ecc1461016757806339bd41ce1461019957610117565b3661011757600080fd5b600080fd5b61012f61012a36600461138b565b610346565b60405161013c919061161d565b60405180910390f35b34801561015157600080fd5b506101656101603660046114fa565b6105f8565b005b34801561017357600080fd5b50610187610182366004611321565b61064c565b60405161013c969594939291906115e7565b3480156101a557600080fd5b5061012f6101b43660046113e8565b61068e565b3480156101c557600080fd5b506101656101d43660046114fa565b6109d7565b3480156101e557600080fd5b506101ee610a2b565b60405161013c9190611835565b34801561020757600080fd5b50610210610a31565b60405161013c919061157c565b34801561022957600080fd5b5061012f610a40565b34801561023e57600080fd5b5061012f61024d366004611360565b610ad6565b34801561025e57600080fd5b50610210610af6565b34801561027357600080fd5b50610210610b05565b34801561028857600080fd5b506101ee610b14565b34801561029d57600080fd5b506102106102ac3660046114fa565b610b1a565b3480156102bd57600080fd5b506101656102cc366004611321565b610b35565b3480156102dd57600080fd5b5061012f6102ec366004611321565b610ba6565b3480156102fd57600080fd5b5061012f61030c3660046114fa565b610dd0565b34801561031d57600080fd5b50610210611011565b34801561033257600080fd5b50610165610341366004611321565b611020565b600081156103e1576005546008546006546040516323b872dd60e01b81526001600160a01b03938416936323b872dd9361038993339392909116916004016115aa565b602060405180830381600087803b1580156103a357600080fd5b505af11580156103b7573d6000803e3d6000fd5b505050506040513d601f19601f820116820180604052508101906103db91906114de565b5061047c565b6008546007546040805160008082526020820192839052936001600160a01b0316929161040e9190611538565b60006040518083038185875af1925050503d806000811461044b576040519150601f19603f3d011682016040523d82523d6000602084013e610450565b606091505b505090508061047a5760405162461bcd60e51b8152600401610471906117c4565b60405180910390fd5b505b6000858152600260205260409020546001600160a01b0316156104b15760405162461bcd60e51b8152600401610471906116c7565b600030886040516104c190611271565b6104cc929190611590565b604051809103906000f0801580156104e8573d6000803e3d6000fd5b5090506104f78833838a6110e3565b6104ff61127e565b506040805160c081018252338082526001600160a01b038b811660208085018281528587018d8152606087018f8152608088018e815260a089018e81528b881660008181528088528c81208c518154908c166001600160a01b0319918216178255975160018201805491909c1690891617909a5594516002808b0191909155935160038a015591516004890155516005909701969096558e825290925290869020805490911690921790915592519192917fefb4dfefa4377fb21e6854298ec37fcf46636d983082d813fc01d2bb8e13b89b906105e1908c9042908b90611855565b60405180910390a350600198975050505050505050565b60035460408051808201909152601b8152600080516020611d1a8339815191526020820152906001600160a01b031633146106465760405162461bcd60e51b81526004016104719190611628565b50600655565b6000602081905290815260409020805460018201546002830154600384015460048501546005909501546001600160a01b039485169593909416939192909186565b600033815b86518110156109ca576000600260008984815181106106ae57fe5b6020908102919091018101518252810191909152604001600020546001600160a01b031690506106dc61127e565b506001600160a01b0380821660009081526020818152604091829020825160c0810184528154851681526001820154909416918401919091526002810154918301919091526003810154606083015260048101546080830181905260059091015460a083015242116107605760405162461bcd60e51b815260040161047190611690565b428160a00151116107835760405162461bcd60e51b81526004016104719061178d565b6001600160a01b038216600090815260016020526040812088519091908990869081106107ac57fe5b60209081029190910181015182528101919091526040016000205460ff16156107e75760405162461bcd60e51b81526004016104719061172a565b60008160400151905060008885815181106107fe57fe5b60200260200101518689878151811061081357fe5b602002602001015160405160200161082d93929190611554565b60405160208183030381529060405280519060200120905060608a868151811061085357fe5b602002602001015190506108688184846111d4565b156109b957846001600160a01b0316631072cbea338b898151811061088957fe5b60200260200101516040518363ffffffff1660e01b81526004016108ae9291906115ce565b602060405180830381600087803b1580156108c857600080fd5b505af11580156108dc573d6000803e3d6000fd5b505050506040513d601f19601f8201168201806040525081019061090091906114de565b506001806000876001600160a01b03166001600160a01b0316815260200190815260200160002060008c898151811061093557fe5b6020026020010151815260200190815260200160002060006101000a81548160ff021916908315150217905550336001600160a01b03167f7e6632ca16a0ac6cf28448500b1a17d96c8b8163ad4c4a9b44ef5386cc02779e8a888151811061099957fe5b6020026020010151876040516109b092919061183e565b60405180910390a25b505060019093019250610693915050565b5060019695505050505050565b60035460408051808201909152601b8152600080516020611d1a8339815191526020820152906001600160a01b03163314610a255760405162461bcd60e51b81526004016104719190611628565b50600755565b60075481565b6008546001600160a01b031681565b6004546000906001600160a01b03163314610a6d5760405162461bcd60e51b815260040161047190611761565b600454600380546001600160a01b0319166001600160a01b0392831690811791829055604051909291909116907f8be0079c531659141344cd1fd0a4f28419497f9722a3daafe3b4186f6b6457e090600090a350600480546001600160a01b0319169055600190565b600160209081526000928352604080842090915290825290205460ff1681565b6003546001600160a01b031681565b6005546001600160a01b031681565b60065481565b6002602052600090815260409020546001600160a01b031681565b60035460408051808201909152601b8152600080516020611d1a8339815191526020820152906001600160a01b03163314610b835760405162461bcd60e51b81526004016104719190611628565b50600880546001600160a01b0319166001600160a01b0392909216919091179055565b6000610bb061127e565b506001600160a01b0380831660009081526020818152604091829020825160c08101845281548516808252600183015490951692810192909252600281015492820192909252600382015460608201526004820154608082015260059091015460a0820152903314610c345760405162461bcd60e51b8152600401610471906116fe565b428160a0015110610c575760405162461bcd60e51b81526004016104719061165b565b826001600160a01b0316631072cbea8260000151856001600160a01b031663fc0c546a6040518163ffffffff1660e01b815260040160206040518083038186803b158015610ca457600080fd5b505afa158015610cb8573d6000803e3d6000fd5b505050506040513d601f19601f82011682018060405250810190610cdc9190611344565b6001600160a01b03166370a08231876040518263ffffffff1660e01b8152600401610d07919061157c565b60206040518083038186803b158015610d1f57600080fd5b505afa158015610d33573d6000803e3d6000fd5b505050506040513d601f19601f82011682018060405250810190610d579190611512565b6040518363ffffffff1660e01b8152600401610d749291906115ce565b602060405180830381600087803b158015610d8e57600080fd5b505af1158015610da2573d6000803e3d6000fd5b505050506040513d601f19601f82011682018060405250810190610dc691906114de565b5060019392505050565b6000818152600260205260408120546001600160a01b0316610df061127e565b506001600160a01b0380821660009081526020818152604091829020825160c08101845281548516808252600183015490951692810192909252600281015492820192909252600382015460608201526004820154608082015260059091015460a0820152903314610e745760405162461bcd60e51b8152600401610471906116fe565b428160a0015110610e975760405162461bcd60e51b81526004016104719061165b565b816001600160a01b0316631072cbea8260000151846001600160a01b031663fc0c546a6040518163ffffffff1660e01b815260040160206040518083038186803b158015610ee457600080fd5b505afa158015610ef8573d6000803e3d6000fd5b505050506040513d601f19601f82011682018060405250810190610f1c9190611344565b6001600160a01b03166370a08231866040518263ffffffff1660e01b8152600401610f47919061157c565b60206040518083038186803b158015610f5f57600080fd5b505afa158015610f73573d6000803e3d6000fd5b505050506040513d601f19601f82011682018060405250810190610f979190611512565b6040518363ffffffff1660e01b8152600401610fb49291906115ce565b602060405180830381600087803b158015610fce57600080fd5b505af1158015610fe2573d6000803e3d6000fd5b505050506040513d601f19601f8201168201806040525081019061100691906114de565b506001949350505050565b6004546001600160a01b031681565b60408051808201909152601081526f4552525f5a45524f5f4144445245535360801b602082015281906001600160a01b0382166110705760405162461bcd60e51b81526004016104719190611628565b5060035460408051808201909152601b8152600080516020611d1a8339815191526020820152906001600160a01b031633146110bf5760405162461bcd60e51b81526004016104719190611628565b5050600480546001600160a01b0319166001600160a01b0392909216919091179055565b60006060856001600160a01b03166323b872dd86868660405160240161110b939291906115aa565b6040516020818303038152906040529060e01b6020820180516001600160e01b0383818316178352505050506040516111449190611538565b6000604051808303816000865af19150503d8060008114611181576040519150601f19603f3d011682016040523d82523d6000602084013e611186565b606091505b50915091508180156111b05750805115806111b05750808060200190518101906111b091906114de565b6111cc5760405162461bcd60e51b8152600401610471906117f1565b505050505050565b600081815b85518110156112665760008682815181106111f057fe5b6020026020010151905080831161123157828160405160200161121492919061152a565b60405160208183030381529060405280519060200120925061125d565b808360405160200161124492919061152a565b6040516020818303038152906040528051906020012092505b506001016111d9565b509092149392505050565b6104118061190983390190565b6040805160c081018252600080825260208201819052918101829052606081018290526080810182905260a081019190915290565b600082601f8301126112c3578081fd5b81356112d66112d182611892565b61186b565b8181529150602080830190848101818402860182018710156112f757600080fd5b60005b84811015611316578135845292820192908201906001016112fa565b505050505092915050565b600060208284031215611332578081fd5b813561133d816118e2565b9392505050565b600060208284031215611355578081fd5b815161133d816118e2565b60008060408385031215611372578081fd5b823561137d816118e2565b946020939093013593505050565b60008060008060008060c087890312156113a3578182fd5b86356113ae816118e2565b95506020870135945060408701359350606087013592506080870135915060a08701356113da816118fa565b809150509295509295509295565b600080600080608085870312156113fd578384fd5b843567ffffffffffffffff80821115611414578586fd5b611420888389016112b3565b9550602091508187013581811115611436578586fd5b8701601f81018913611446578586fd5b80356114546112d182611892565b81815284810190838601895b84811015611489576114778e8984358901016112b3565b84529287019290870190600101611460565b509098505050506040880135925050808211156114a4578384fd5b6114b0888389016112b3565b935060608701359150808211156114c5578283fd5b506114d2878288016112b3565b91505092959194509250565b6000602082840312156114ef578081fd5b815161133d816118fa565b60006020828403121561150b578081fd5b5035919050565b600060208284031215611523578081fd5b5051919050565b918252602082015260400190565b6000825161154a8184602087016118b2565b9190910192915050565b92835260609190911b6bffffffffffffffffffffffff19166020830152603482015260540190565b6001600160a01b0391909116815260200190565b6001600160a01b0392831681529116602082015260400190565b6001600160a01b039384168152919092166020820152604081019190915260600190565b6001600160a01b03929092168252602082015260400190565b6001600160a01b03968716815294909516602085015260408401929092526060830152608082015260a081019190915260c00190565b901515815260200190565b60006020825282518060208401526116478160408501602087016118b2565b601f01601f19169190910160400192915050565b6020808252818101527f4552525f544f4b454e5f41495244524f505f4841534e4f545f45585049524544604082015260600190565b60208082526017908201527f4552525f41495244524f505f4e4f545f53544152544544000000000000000000604082015260600190565b60208082526018908201527f4552525f484153485f414c52454144595f435245415445440000000000000000604082015260600190565b60208082526012908201527111549497d393d517d055551213d49256915160721b604082015260600190565b6020808252601b908201527f4552525f41495244524f505f414c52454144595f434c41494d45440000000000604082015260600190565b60208082526012908201527122a9292fa7a7262cafa722abafa7aba722a960711b604082015260600190565b60208082526017908201527f4552525f41495244524f505f4841535f45585049524544000000000000000000604082015260600190565b60208082526013908201527211549497d514905394d1915497d19052531151606a1b604082015260600190565b60208082526024908201527f5472616e7366657248656c7065723a205452414e534645525f46524f4d5f46416040820152631253115160e21b606082015260800190565b90815260200190565b9182526001600160a01b0316602082015260400190565b9283526020830191909152604082015260600190565b60405181810167ffffffffffffffff8111828210171561188a57600080fd5b604052919050565b600067ffffffffffffffff8211156118a8578081fd5b5060209081020190565b60005b838110156118cd5781810151838201526020016118b5565b838111156118dc576000848401525b50505050565b6001600160a01b03811681146118f757600080fd5b50565b80151581146118f757600080fdfe608060405234801561001057600080fd5b5060405161041138038061041183398101604081905261002f91610060565b600080546001600160a01b039384166001600160a01b031991821617909155600180549290931691161790556100b1565b60008060408385031215610072578182fd5b825161007d81610099565b602084015190925061008e81610099565b809150509250929050565b6001600160a01b03811681146100ae57600080fd5b50565b610351806100c06000396000f3fe608060405234801561001057600080fd5b50600436106100415760003560e01c80631072cbea146100465780638da5cb5b1461006f578063fc0c546a14610084575b600080fd5b6100596100543660046101e6565b61008c565b60405161006691906102a9565b60405180910390f35b6100776100d3565b604051610066919061027c565b6100776100e2565b600080546001600160a01b031633146100c05760405162461bcd60e51b81526004016100b7906102eb565b60405180910390fd5b6100ca83836100f1565b50600192915050565b6000546001600160a01b031681565b6001546001600160a01b031681565b6001546040516000916060916001600160a01b039091169063a9059cbb9061011f9087908790602401610290565b6040516020818303038152906040529060e01b6020820180516001600160e01b0383818316178352505050506040516101589190610243565b6000604051808303816000865af19150503d8060008114610195576040519150601f19603f3d011682016040523d82523d6000602084013e61019a565b606091505b50915091508180156101c45750805115806101c45750808060200190518101906101c4919061021c565b6101e05760405162461bcd60e51b81526004016100b7906102b4565b50505050565b600080604083850312156101f8578182fd5b82356001600160a01b038116811461020e578283fd5b946020939093013593505050565b60006020828403121561022d578081fd5b8151801515811461023c578182fd5b9392505050565b60008251815b818110156102635760208186018101518583015201610249565b818111156102715782828501525b509190910192915050565b6001600160a01b0391909116815260200190565b6001600160a01b03929092168252602082015260400190565b901515815260200190565b6020808252601f908201527f5472616e7366657248656c7065723a205452414e534645525f4641494c454400604082015260600190565b60208082526016908201527531b0b63632b91039b437bab6321031329037bbb732b960511b60408201526060019056fea26469706673582212201554da74277370ce2d02da1d6e15daf54f92dd25bf666e8682dc2dc4b502ad7264736f6c634300060c00334552525f415554484f52495a45445f414444524553535f4f4e4c590000000000a2646970667358221220ad45e8cd682ff10363cfce654238921ffdfaaf0f0aeb69da4c8767c2413ceb8464736f6c634300060c0033",
  "immutableReferences": {},
  "source": "pragma solidity ^0.6.0;\npragma experimental ABIEncoderV2;\n\nimport \"./MerkleProof.sol\";\nimport \"./IERC20.sol\";\nimport \"./SafeMath.sol\";\nimport \"./Ownable.sol\";\n\ncontract TokenVault {\n    address public owner;\n    address public token;\n\n    constructor(address _owner, address _token) public {\n        owner = _owner;\n        token = _token;\n    }\n     /**\n     * @dev transfers token to 'whom' address with 'amount'.\n     */\n    function transferToken(address _whom, uint256 _amount)\n        public\n        returns (bool)\n    {\n        require(msg.sender == owner, \"caller should be owner\");\n        safeTransfer(_whom, _amount);\n        return true;\n    }\n\n    function safeTransfer(address to, uint256 value) internal {\n        // bytes4(keccak256(bytes('transfer(address,uint256)')));\n        (bool success, bytes memory data) = token.call(abi.encodeWithSelector(0xa9059cbb, to, value));\n        require(success && (data.length == 0 || abi.decode(data, (bool))),\"TransferHelper: TRANSFER_FAILED\" );\n    }\n}\n\nabstract contract MerkleDropStorage {\n    \n    /**\n     *  airdropCreator - token airdropCreator\n     * 'tokenAddress '  - token's contract address\n     *  'amount' - amount of tokens to be airdropped\n     *  'rootHash' -  merkle root hash\n     *  'airdropDate' - airdrop creation date\n     *  'airdropExpirationDate'- token's airdrop Exipration Date\n     */\n    struct MerkleAirDrop {\n        address airdropCreator; \n        address tokenAddress; \n        bytes32 rootHash; \n        uint256 amount; \n        uint256 airdropStartDate; \n        uint256 airdropExpirationDate;\n       \n    }\n    \n    //Events\n    event AirDropSubmitted(\n        address indexed _airdropCreator,\n        address indexed _token,\n        uint256 _amount,\n        uint256 _airdropDate,\n        uint256 _airdropExpirationDate\n    );\n\n    event Claimed(address indexed account, uint256 amount, address vault);\n\n    //Mapping\n    mapping(address => MerkleAirDrop) public airdroppedtokens;\n    mapping(address => mapping(uint256 => bool)) public claimedMap;\n    mapping(bytes32 => address) public vaultAddress;\n    \n}\n\ncontract MerkleDrop is MerkleDropStorage,SafeMath,Ownable {\n    using MerkleProof for bytes32[];\n    \n    address public tokenAddress;\n    \n    uint256 public feeInToken;\n    \n    uint256 public feeInEth;\n    \n    address public walletAddress;\n    \n    constructor(address _token,uint256 _feeToken,uint256 _feeEth,address _walletAddress)public{\n        tokenAddress = _token;\n        feeInToken = _feeToken;\n        feeInEth = _feeEth;\n        walletAddress = _walletAddress;\n    }\n    \n    //To perform safe transfer of token\n    function safeTransferFrom(\n        address _token,\n        address from,\n        address to,\n        uint256 value\n    ) internal {\n        // bytes4(keccak256(bytes('transferFrom(address,address,uint256)')));\n        (bool success, bytes memory data) = _token.call(abi.encodeWithSelector(0x23b872dd, from, to, value));\n        require(success && (data.length == 0 || abi.decode(data, (bool))),\"TransferHelper: TRANSFER_FROM_FAILED\");\n    }\n    \n    /**\n     * @dev creates token airdrop.\n     * \n     * @param\n     * ' _token '  - token's contract address\n     *  ' _amount' - amount of tokens to be airdropped\n     *  '_root' -  merkle root hash\n     *  '_airdropStartDate' airdrop start date\n     *  '_airdropExpirationDate'- token's airdrop Exipration Date\n     *  '_paymentInToken' - pay in tokens\n     */\n    function createAirDrop(\n        address _token, \n        uint256 _amount, \n        bytes32 _root, \n        uint256  _airdropStartDate,\n        uint256 _airdropExpirationDate,\n        bool _paymentInToken\n    ) external payable returns (bool) {\n        if(_paymentInToken){\n            IERC20(tokenAddress).transferFrom(msg.sender,walletAddress,feeInToken);\n        }\n        else{\n            (bool success,) = walletAddress.call{value:feeInEth}(new bytes(0));\n            require(success,\"ERR_TRANSFER_FAILED\");\n        }\n        require(vaultAddress[_root] == address(0),\"ERR_HASH_ALREADY_CREATED\");\n        TokenVault vault = new TokenVault(address(this), _token);\n        safeTransferFrom(_token, msg.sender, address(vault), _amount);\n        MerkleAirDrop memory merkledrop = MerkleAirDrop(msg.sender,_token, _root,_amount,_airdropStartDate,_airdropExpirationDate);\n        airdroppedtokens[address(vault)] = merkledrop;\n        vaultAddress[_root] = address(vault);\n        emit AirDropSubmitted(msg.sender,_token,_amount,now,_airdropExpirationDate);\n        return true;\n    }\n\n    //To set token fee \n    function setTokenFee(uint256 _fee) external onlyOwner(){\n        feeInToken = _fee;\n    }\n    \n    //To set eth fee\n    function setEthFee(uint256 _fee) external onlyOwner(){\n        feeInEth = _fee;\n    }\n    \n    //To set walletAddress\n    function setWalletAddress(address _walletAddress)external onlyOwner(){\n        walletAddress = _walletAddress;\n    }\n    \n     /**\n     * @dev to claim the airdropped tokens.\n     * \n     *  @param\n     * ' _hex'  - hex bytes\n     *  ' _proof' - merkle proof\n     *  'index' - address index\n     *  '_amount' -  amount of token to be claimed\n     */\n    function claim(\n        bytes32[] memory _hex,\n        bytes32[][] memory _proof,\n        uint256[] memory index,\n        uint256[] memory amount\n    ) external returns (bool) {\n        address _userAddress = msg.sender;\n        for (uint256 i = 0; i < _hex.length; i++) {\n            address vault = vaultAddress[_hex[i]];\n            MerkleAirDrop memory merkledrop = airdroppedtokens[vault];\n            require(now > merkledrop.airdropStartDate ,\"ERR_AIRDROP_NOT_STARTED\");\n            require(merkledrop.airdropExpirationDate > now,\"ERR_AIRDROP_HAS_EXPIRED\");\n            require(!claimedMap[vault][index[i]],\"ERR_AIRDROP_ALREADY_CLAIMED\");\n            bytes32 root = merkledrop.rootHash;\n            bytes32 node = keccak256(abi.encodePacked(index[i], _userAddress, amount[i]));\n            bytes32[] memory proof = _proof[i];\n            if (MerkleProof.verify(proof, root, node)){\n                TokenVault(vault).transferToken(msg.sender,amount[i]);\n                claimedMap[vault][index[i]] = true;\n                emit Claimed(msg.sender, amount[i],vault);\n            }\n        }\n        return true;\n    }\n\n     /**\n     * @dev to send the airdropped tokens back to AirDropper.\n     * \n     *  @param\n     * ' _vault'  - vault Address\n     */\n    function sendTokenBackToAirDropperByVault(address _vault) external returns (bool) {\n        MerkleAirDrop memory merkledrop = airdroppedtokens[_vault];\n        require(merkledrop.airdropCreator == msg.sender, \"ERR_NOT_AUTHORIZED\");\n        require(merkledrop.airdropExpirationDate < now, \"ERR_TOKEN_AIRDROP_HASNOT_EXPIRED\");\n        TokenVault(_vault).transferToken(merkledrop.airdropCreator,IERC20(TokenVault(_vault).token()).balanceOf(_vault));\n        return true;\n    }\n    \n    /**\n     * @dev to send the airdropped tokens back to AirDropper.\n     * \n     *  @param\n     * ' _hex'  - hex bytes\n     */\n    function sendTokenBackToAirDropperByHex(bytes32 _hex) external returns (bool) {\n        address _vault = vaultAddress[_hex];\n        MerkleAirDrop memory merkledrop = airdroppedtokens[_vault];\n        require(merkledrop.airdropCreator == msg.sender, \"ERR_NOT_AUTHORIZED\");\n        require(merkledrop.airdropExpirationDate < now, \"ERR_TOKEN_AIRDROP_HASNOT_EXPIRED\");\n        TokenVault(_vault).transferToken(merkledrop.airdropCreator,IERC20(TokenVault(_vault).token()).balanceOf(_vault));\n        return true;\n    }\n    \n    fallback() external payable {\n        revert();\n    }\n\n    receive() external payable {\n        revert();\n    }  \n}\n",
  "sourcePath": "/work/MerkleDrop/contracts/contracts/MerkleDrop.sol",
  "compiler": {
    "name": "solc",
    "version": "0.6.12+commit.27d51765.Emscripten.clang"
  },
  "schemaVersion": "3.3.3",
  "updatedAt": "2021-03-24T11:28:31.696Z",
  "devdoc": {
    "kind": "dev",
    "methods": {
      "claim(bytes32[],bytes32[][],uint256[],uint256[])": {
        "details": "to claim the airdropped tokens. ",
        "params": {
          "": "' _hex'  - hex bytes  ' _proof' - merkle proof  'index' - address index  '_amount' -  amount of token to be claimed"
        }
      },
      "createAirDrop(address,uint256,bytes32,uint256,uint256,bool)": {
        "details": "creates token airdrop. ",
        "params": {
          "": "' _token '  - token's contract address  ' _amount' - amount of tokens to be airdropped  '_root' -  merkle root hash  '_airdropStartDate' airdrop start date  '_airdropExpirationDate'- token's airdrop Exipration Date  '_paymentInToken' - pay in tokens"
        }
      },
      "sendTokenBackToAirDropperByHex(bytes32)": {
        "details": "to send the airdropped tokens back to AirDropper. ",
        "params": {
          "": "' _hex'  - hex bytes"
        }
      },
      "sendTokenBackToAirDropperByVault(address)": {
        "details": "to send the airdropped tokens back to AirDropper. ",
        "params": {
          "": "' _vault'  - vault Address"
        }
      },
      "transferOwnership(address)": {
        "details": "Transfers ownership of the contract to a new account (`newOwner`). Can only be called by the current owner."
      }
    },
    "version": 1
  },
  "userdoc": {
    "kind": "user",
    "methods": {},
    "version": 1
  }
}