{
  "contractName": "TokenBasic",
  "abi": [
    {
      "inputs": [],
      "stateMutability": "nonpayable",
      "type": "constructor"
    },
    {
      "anonymous": false,
      "inputs": [
        {
          "indexed": true,
          "internalType": "address",
          "name": "owner",
          "type": "address"
        },
        {
          "indexed": true,
          "internalType": "address",
          "name": "spender",
          "type": "address"
        },
        {
          "indexed": false,
          "internalType": "uint256",
          "name": "value",
          "type": "uint256"
        }
      ],
      "name": "Approval",
      "type": "event"
    },
    {
      "anonymous": false,
      "inputs": [
        {
          "indexed": true,
          "internalType": "address",
          "name": "from",
          "type": "address"
        },
        {
          "indexed": true,
          "internalType": "address",
          "name": "to",
          "type": "address"
        },
        {
          "indexed": false,
          "internalType": "uint256",
          "name": "value",
          "type": "uint256"
        }
      ],
      "name": "Transfer",
      "type": "event"
    },
    {
      "inputs": [],
      "name": "_initialAmount",
      "outputs": [
        {
          "internalType": "uint256",
          "name": "",
          "type": "uint256"
        }
      ],
      "stateMutability": "view",
      "type": "function"
    },
    {
      "inputs": [],
      "name": "decimals",
      "outputs": [
        {
          "internalType": "uint256",
          "name": "",
          "type": "uint256"
        }
      ],
      "stateMutability": "view",
      "type": "function"
    },
    {
      "inputs": [],
      "name": "name",
      "outputs": [
        {
          "internalType": "string",
          "name": "",
          "type": "string"
        }
      ],
      "stateMutability": "view",
      "type": "function"
    },
    {
      "inputs": [],
      "name": "symbol",
      "outputs": [
        {
          "internalType": "string",
          "name": "",
          "type": "string"
        }
      ],
      "stateMutability": "view",
      "type": "function"
    },
    {
      "inputs": [],
      "name": "totalSupply_",
      "outputs": [
        {
          "internalType": "uint256",
          "name": "",
          "type": "uint256"
        }
      ],
      "stateMutability": "view",
      "type": "function"
    },
    {
      "inputs": [],
      "name": "tokenname",
      "outputs": [
        {
          "internalType": "string",
          "name": "",
          "type": "string"
        }
      ],
      "stateMutability": "view",
      "type": "function"
    },
    {
      "inputs": [],
      "name": "tokensymbol",
      "outputs": [
        {
          "internalType": "string",
          "name": "",
          "type": "string"
        }
      ],
      "stateMutability": "view",
      "type": "function"
    },
    {
      "inputs": [],
      "name": "totalSupply",
      "outputs": [
        {
          "internalType": "uint256",
          "name": "",
          "type": "uint256"
        }
      ],
      "stateMutability": "view",
      "type": "function"
    },
    {
      "inputs": [
        {
          "internalType": "address",
          "name": "_to",
          "type": "address"
        },
        {
          "internalType": "uint256",
          "name": "_tokens",
          "type": "uint256"
        }
      ],
      "name": "transfer",
      "outputs": [
        {
          "internalType": "bool",
          "name": "success",
          "type": "bool"
        }
      ],
      "stateMutability": "nonpayable",
      "type": "function"
    },
    {
      "inputs": [
        {
          "internalType": "address",
          "name": "_from",
          "type": "address"
        },
        {
          "internalType": "address",
          "name": "__to",
          "type": "address"
        },
        {
          "internalType": "uint256",
          "name": "_token",
          "type": "uint256"
        }
      ],
      "name": "transferFrom",
      "outputs": [
        {
          "internalType": "bool",
          "name": "success",
          "type": "bool"
        }
      ],
      "stateMutability": "nonpayable",
      "type": "function"
    },
    {
      "inputs": [
        {
          "internalType": "address",
          "name": "_Owner",
          "type": "address"
        }
      ],
      "name": "balanceOf",
      "outputs": [
        {
          "internalType": "uint256",
          "name": "balance",
          "type": "uint256"
        }
      ],
      "stateMutability": "view",
      "type": "function"
    },
    {
      "inputs": [
        {
          "internalType": "address",
          "name": "_spender",
          "type": "address"
        },
        {
          "internalType": "uint256",
          "name": "_value",
          "type": "uint256"
        }
      ],
      "name": "approve",
      "outputs": [
        {
          "internalType": "bool",
          "name": "success",
          "type": "bool"
        }
      ],
      "stateMutability": "nonpayable",
      "type": "function"
    },
    {
      "inputs": [
        {
          "internalType": "address",
          "name": "_tokenOwner",
          "type": "address"
        },
        {
          "internalType": "address",
          "name": "_spenderaddr",
          "type": "address"
        }
      ],
      "name": "allowance",
      "outputs": [
        {
          "internalType": "uint256",
          "name": "remaining",
          "type": "uint256"
        }
      ],
      "stateMutability": "view",
      "type": "function"
    }
  ],
  "bytecode": "0x60c060405260066080819052654d495354494360d01b60a09081526100279160029190610091565b5060408051808201909152600480825263135254d560e21b602090920191825261005391600391610091565b50601260045569014542ba12a337c00000600581905560065534801561007857600080fd5b5060065433600090815260208190526040902055610124565b828054600181600116156101000203166002900490600052602060002090601f016020900481019282601f106100d257805160ff19168380011785556100ff565b828001600101855582156100ff579182015b828111156100ff5782518255916020019190600101906100e4565b5061010b92915061010f565b5090565b5b8082111561010b5760008155600101610110565b6108df806101336000396000f3fe608060405234801561001057600080fd5b50600436106100cf5760003560e01c8063324536eb1161008c57806395d89b411161006657806395d89b4114610227578063a9059cbb1461022f578063dd62ed3e1461025b578063fd40047514610289576100cf565b8063324536eb146101f157806370a08231146101f95780637f8bb1aa1461021f576100cf565b806306fdde03146100d4578063095ea7b31461015157806318160ddd1461019157806323b872dd146101ab578063273726cd146101e1578063313ce567146101e9575b600080fd5b6100dc610291565b6040805160208082528351818301528351919283929083019185019080838360005b838110156101165781810151838201526020016100fe565b50505050905090810190601f1680156101435780820380516001836020036101000a031916815260200191505b509250505060405180910390f35b61017d6004803603604081101561016757600080fd5b506001600160a01b03813516906020013561031c565b604080519115158252519081900360200190f35b610199610382565b60408051918252519081900360200190f35b61017d600480360360608110156101c157600080fd5b506001600160a01b03813581169160208101359091169060400135610388565b6101996104d8565b6101996104de565b6101996104e4565b6101996004803603602081101561020f57600080fd5b50356001600160a01b03166104ea565b6100dc610505565b6100dc610598565b61017d6004803603604081101561024557600080fd5b506001600160a01b0381351690602001356105f3565b6101996004803603604081101561027157600080fd5b506001600160a01b03813581169160200135166106bd565b6100dc6106e8565b6002805460408051602060018416156101000260001901909316849004601f810184900484028201840190925281815292918301828280156103145780601f106102e957610100808354040283529160200191610314565b820191906000526020600020905b8154815290600101906020018083116102f757829003601f168201915b505050505081565b3360008181526001602090815260408083206001600160a01b038716808552908352818420869055815186815291519394909390927f8c5be1e5ebec7d5bd14f71427d1e84f3dd0314c0f7b2291e5b200ac8c7c3b925928290030190a350600192915050565b60055490565b6001600160a01b0383166000908152602081905260408120548211156103df5760405162461bcd60e51b81526004018080602001828103825260268152602001806108846026913960400191505060405180910390fd5b6001600160a01b0384166000908152602081905260409020546104029083610749565b6001600160a01b0380861660009081526020819052604080822093909355908516815220546104319083610792565b6001600160a01b0380851660009081526020818152604080832094909455918716815260018252828120338252909152205461046d9083610749565b6001600160a01b03808616600081815260016020908152604080832033845282529182902094909455805186815290519287169391927fddf252ad1be2c89b69c2b068fc378daa952ba7f163c4a11628f55a4df523b3ef929181900390910190a35060019392505050565b60065481565b60045481565b60055481565b6001600160a01b031660009081526020819052604090205490565b60028054604080516020601f600019610100600187161502019094168590049384018190048102820181019092528281526060939092909183018282801561058e5780601f106105635761010080835404028352916020019161058e565b820191906000526020600020905b81548152906001019060200180831161057157829003601f168201915b5050505050905090565b6003805460408051602060026001851615610100026000190190941693909304601f810184900484028201840190925281815292918301828280156103145780601f106102e957610100808354040283529160200191610314565b3360009081526020819052604081205482118015906106125750600082115b61061b57600080fd5b336000908152602081905260409020546106359083610749565b33600090815260208190526040808220929092556001600160a01b038516815220546106619083610792565b6001600160a01b038416600081815260208181526040918290209390935580518581529051919233927fddf252ad1be2c89b69c2b068fc378daa952ba7f163c4a11628f55a4df523b3ef9281900390910190a350600192915050565b6001600160a01b03918216600090815260016020908152604080832093909416825291909152205490565b60038054604080516020601f600260001961010060018816150201909516949094049384018190048102820181019092528281526060939092909183018282801561058e5780601f106105635761010080835404028352916020019161058e565b600061078b83836040518060400160405280601e81526020017f536166654d6174683a207375627472616374696f6e206f766572666c6f7700008152506107ec565b9392505050565b60008282018381101561078b576040805162461bcd60e51b815260206004820152601b60248201527f536166654d6174683a206164646974696f6e206f766572666c6f770000000000604482015290519081900360640190fd5b6000818484111561087b5760405162461bcd60e51b81526004018080602001828103825283818151815260200191508051906020019080838360005b83811015610840578181015183820152602001610828565b50505050905090810190601f16801561086d5780820380516001836020036101000a031916815260200191505b509250505060405180910390fd5b50505090039056fe546865207370656e6465722073686f756c64206861766520656e6f75676820746f6b656e7320a26469706673582212204de02122e0678e41fc77108d4ff6c872e24be4e0dea5cf79a3f47fd889da5e1964736f6c634300060c0033",
  "immutableReferences": {},
  "source": "pragma solidity  ^0.6.0;\r\n\r\n\r\nimport \"./IERC20.sol\";\r\nimport \"./Math.sol\";\r\n\r\ncontract TokenBasic is IERC20\r\n{\r\n    using Math for uint256;\r\n    \r\n     \r\n    function tokenname() public view returns (string memory) {\r\n        return name;\r\n    }\r\n    \r\n    function tokensymbol() public view returns (string memory) {\r\n        return symbol;\r\n    }\r\n    \r\n    function totalSupply() public view override returns (uint256) {\r\n        return totalSupply_;\r\n    }\r\n\r\n    function transfer(address _to, uint _tokens)public  override returns(bool success)\r\n    {\r\n            require(balances[msg.sender] >=_tokens && _tokens > 0);\r\n        \r\n            balances[msg.sender] = balances[msg.sender].sub(_tokens);\r\n            balances[_to] =balances[_to].add(_tokens);\r\n            emit  Transfer(msg.sender,_to,_tokens);\r\n            return true;\r\n    }\r\n    \r\n     function transferFrom(address _from,address __to, uint _token)public  override returns(bool success)\r\n    {\r\n            require(balances[_from] >=_token,\"The spender should have enough tokens \");\r\n            \r\n            balances[_from]= balances[_from].sub(_token);\r\n            balances[__to] =  balances[__to].add(_token);\r\n            allowed[_from][msg.sender] = allowed[_from][msg.sender].sub(_token);\r\n            \r\n            emit Transfer(_from,__to,_token);\r\n            return true;\r\n            \r\n       \r\n    }\r\n    \r\n    function balanceOf(address _Owner) public override view returns (uint256 balance) {\r\n        return balances[_Owner];\r\n    }\r\n\r\n    function approve(address _spender, uint256 _value)public override returns (bool success) {\r\n        \r\n        allowed[msg.sender][_spender] = _value;\r\n        emit Approval(msg.sender, _spender, _value);\r\n        return true;\r\n    }\r\n\r\n    function allowance(address _tokenOwner, address _spenderaddr) public override view returns (uint256 remaining) {\r\n      return allowed[_tokenOwner][_spenderaddr];\r\n     }\r\n   \r\n    mapping (address => uint256)internal balances;\r\n    mapping (address => mapping(address => uint256))allowed;\r\n    \r\n    \r\n    constructor( ) public {\r\n        balances[msg.sender] = _initialAmount;                               \r\n    }\r\n   \r\n    string public  name=\"MISTIC\";\r\n    string public  symbol=\"MIST\" ;\r\n    uint256 public decimals=18;\r\n    uint256 public totalSupply_= 6000 * (uint256(10) ** decimals);\r\n    uint256 public _initialAmount = totalSupply_ ;\r\n    \r\n}",
  "sourcePath": "/work/MerkleDrop/contracts/contracts/TokenBasic.sol",
  "compiler": {
    "name": "solc",
    "version": "0.6.12+commit.27d51765.Emscripten.clang"
  },
  "schemaVersion": "3.3.3",
  "updatedAt": "2021-03-24T11:28:31.716Z",
  "devdoc": {
    "kind": "dev",
    "methods": {
      "totalSupply()": {
        "details": "Returns the amount of tokens in existence."
      }
    },
    "version": 1
  },
  "userdoc": {
    "kind": "user",
    "methods": {},
    "version": 1
  }
}